{
  "contractName": "Wallet",
  "abi": [
    {
      "inputs": [
        {
          "internalType": "address[]",
          "name": "_approvers",
          "type": "address[]"
        },
        {
          "internalType": "uint256",
          "name": "_quorum",
          "type": "uint256"
        }
      ],
      "stateMutability": "nonpayable",
      "type": "constructor"
    },
    {
      "inputs": [
        {
          "internalType": "address",
          "name": "",
          "type": "address"
        },
        {
          "internalType": "uint256",
          "name": "",
          "type": "uint256"
        }
      ],
      "name": "approvals",
      "outputs": [
        {
          "internalType": "bool",
          "name": "",
          "type": "bool"
        }
      ],
      "stateMutability": "view",
      "type": "function",
      "constant": true
    },
    {
      "inputs": [
        {
          "internalType": "uint256",
          "name": "",
          "type": "uint256"
        }
      ],
      "name": "approvers",
      "outputs": [
        {
          "internalType": "address",
          "name": "",
          "type": "address"
        }
      ],
      "stateMutability": "view",
      "type": "function",
      "constant": true
    },
    {
      "inputs": [],
      "name": "quorum",
      "outputs": [
        {
          "internalType": "uint256",
          "name": "",
          "type": "uint256"
        }
      ],
      "stateMutability": "view",
      "type": "function",
      "constant": true
    },
    {
      "inputs": [
        {
          "internalType": "uint256",
          "name": "",
          "type": "uint256"
        }
      ],
      "name": "transfers",
      "outputs": [
        {
          "internalType": "uint256",
          "name": "id",
          "type": "uint256"
        },
        {
          "internalType": "uint256",
          "name": "amount",
          "type": "uint256"
        },
        {
          "internalType": "address payable",
          "name": "to",
          "type": "address"
        },
        {
          "internalType": "uint256",
          "name": "approvals",
          "type": "uint256"
        },
        {
          "internalType": "bool",
          "name": "sent",
          "type": "bool"
        }
      ],
      "stateMutability": "view",
      "type": "function",
      "constant": true
    },
    {
      "stateMutability": "payable",
      "type": "receive",
      "payable": true
    },
    {
      "inputs": [],
      "name": "getApprovers",
      "outputs": [
        {
          "internalType": "address[]",
          "name": "",
          "type": "address[]"
        }
      ],
      "stateMutability": "view",
      "type": "function",
      "constant": true
    },
    {
      "inputs": [],
      "name": "getTransfers",
      "outputs": [
        {
          "components": [
            {
              "internalType": "uint256",
              "name": "id",
              "type": "uint256"
            },
            {
              "internalType": "uint256",
              "name": "amount",
              "type": "uint256"
            },
            {
              "internalType": "address payable",
              "name": "to",
              "type": "address"
            },
            {
              "internalType": "uint256",
              "name": "approvals",
              "type": "uint256"
            },
            {
              "internalType": "bool",
              "name": "sent",
              "type": "bool"
            }
          ],
          "internalType": "struct Wallet.Transfer[]",
          "name": "",
          "type": "tuple[]"
        }
      ],
      "stateMutability": "view",
      "type": "function",
      "constant": true
    },
    {
      "inputs": [
        {
          "internalType": "uint256",
          "name": "amount",
          "type": "uint256"
        },
        {
          "internalType": "address payable",
          "name": "to",
          "type": "address"
        }
      ],
      "name": "createTransfer",
      "outputs": [],
      "stateMutability": "nonpayable",
      "type": "function"
    },
    {
      "inputs": [
        {
          "internalType": "uint256",
          "name": "id",
          "type": "uint256"
        }
      ],
      "name": "approveTransfer",
      "outputs": [],
      "stateMutability": "nonpayable",
      "type": "function"
    }
  ],
  "bytecode": "0x60806040523480156200001157600080fd5b506040516200199238038062001992833981810160405281019062000037919062000336565b81600090805190602001906200004f9291906200005f565b508060018190555050506200039c565b828054828255906000526020600020908101928215620000db579160200282015b82811115620000da5782518260006101000a81548173ffffffffffffffffffffffffffffffffffffffff021916908373ffffffffffffffffffffffffffffffffffffffff1602179055509160200191906001019062000080565b5b509050620000ea9190620000ee565b5090565b5b8082111562000109576000816000905550600101620000ef565b5090565b6000604051905090565b600080fd5b600080fd5b600080fd5b6000601f19601f8301169050919050565b7f4e487b7100000000000000000000000000000000000000000000000000000000600052604160045260246000fd5b620001718262000126565b810181811067ffffffffffffffff8211171562000193576200019262000137565b5b80604052505050565b6000620001a86200010d565b9050620001b6828262000166565b919050565b600067ffffffffffffffff821115620001d957620001d862000137565b5b602082029050602081019050919050565b600080fd5b600073ffffffffffffffffffffffffffffffffffffffff82169050919050565b60006200021c82620001ef565b9050919050565b6200022e816200020f565b81146200023a57600080fd5b50565b6000815190506200024e8162000223565b92915050565b60006200026b6200026584620001bb565b6200019c565b90508083825260208201905060208402830185811115620002915762000290620001ea565b5b835b81811015620002be5780620002a988826200023d565b84526020840193505060208101905062000293565b5050509392505050565b600082601f830112620002e057620002df62000121565b5b8151620002f284826020860162000254565b91505092915050565b6000819050919050565b6200031081620002fb565b81146200031c57600080fd5b50565b600081519050620003308162000305565b92915050565b6000806040838503121562000350576200034f62000117565b5b600083015167ffffffffffffffff8111156200037157620003706200011c565b5b6200037f85828601620002c8565b925050602062000392858286016200031f565b9150509250929050565b6115e680620003ac6000396000f3fe60806040526004361061007f5760003560e01c80639377d7111161004e5780639377d71114610135578063cacca4a014610176578063d3650fb81461019f578063ffabc673146101dc57610086565b80631703a0181461008b5780632f65142c146100b65780634c12fa47146100e15780636cb3e8ef1461010a57610086565b3661008657005b600080fd5b34801561009757600080fd5b506100a0610219565b6040516100ad9190610c2a565b60405180910390f35b3480156100c257600080fd5b506100cb61021f565b6040516100d89190610dc7565b60405180910390f35b3480156100ed57600080fd5b5061010860048036038101906101039190610e46565b61030d565b005b34801561011657600080fd5b5061011f6104e5565b60405161012c9190610f56565b60405180910390f35b34801561014157600080fd5b5061015c60048036038101906101579190610f78565b610573565b60405161016d959493929190610fc3565b60405180910390f35b34801561018257600080fd5b5061019d60048036038101906101989190610f78565b6105e6565b005b3480156101ab57600080fd5b506101c660048036038101906101c19190610f78565b610a43565b6040516101d39190611025565b60405180910390f35b3480156101e857600080fd5b5061020360048036038101906101fe919061106c565b610a82565b60405161021091906110ac565b60405180910390f35b60015481565b60606002805480602002602001604051908101604052809291908181526020016000905b8282101561030457838290600052602060002090600502016040518060a001604052908160008201548152602001600182015481526020016002820160009054906101000a900473ffffffffffffffffffffffffffffffffffffffff1673ffffffffffffffffffffffffffffffffffffffff1673ffffffffffffffffffffffffffffffffffffffff168152602001600382015481526020016004820160009054906101000a900460ff16151515158152505081526020019060010190610243565b50505050905090565b6000805b6000805490508110156103a7573373ffffffffffffffffffffffffffffffffffffffff1660008281548110610349576103486110c7565b5b9060005260206000200160009054906101000a900473ffffffffffffffffffffffffffffffffffffffff1673ffffffffffffffffffffffffffffffffffffffff160361039457600191505b808061039f90611125565b915050610311565b50806103e8576040517f08c379a00000000000000000000000000000000000000000000000000000000081526004016103df906111f0565b60405180910390fd5b60026040518060a0016040528060028054905081526020018581526020018473ffffffffffffffffffffffffffffffffffffffff16815260200160008152602001600015158152509080600181540180825580915050600190039060005260206000209060050201600090919091909150600082015181600001556020820151816001015560408201518160020160006101000a81548173ffffffffffffffffffffffffffffffffffffffff021916908373ffffffffffffffffffffffffffffffffffffffff1602179055506060820151816003015560808201518160040160006101000a81548160ff0219169083151502179055505050505050565b6060600080548060200260200160405190810160405280929190818152602001828054801561056957602002820191906000526020600020905b8160009054906101000a900473ffffffffffffffffffffffffffffffffffffffff1673ffffffffffffffffffffffffffffffffffffffff168152602001906001019080831161051f575b5050505050905090565b6002818154811061058357600080fd5b90600052602060002090600502016000915090508060000154908060010154908060020160009054906101000a900473ffffffffffffffffffffffffffffffffffffffff16908060030154908060040160009054906101000a900460ff16905085565b6000805b600080549050811015610680573373ffffffffffffffffffffffffffffffffffffffff1660008281548110610622576106216110c7565b5b9060005260206000200160009054906101000a900473ffffffffffffffffffffffffffffffffffffffff1673ffffffffffffffffffffffffffffffffffffffff160361066d57600191505b808061067890611125565b9150506105ea565b50806106c1576040517f08c379a00000000000000000000000000000000000000000000000000000000081526004016106b8906111f0565b60405180910390fd5b60028054905082106106d283610ab1565b6040516020016106e291906112d6565b60405160208183030381529060405290610732576040517f08c379a00000000000000000000000000000000000000000000000000000000081526004016107299190611355565b60405180910390fd5b5060028281548110610747576107466110c7565b5b906000526020600020906005020160040160009054906101000a900460ff161561077083610ab1565b604051602001610780919061139d565b604051602081830303815290604052906107d0576040517f08c379a00000000000000000000000000000000000000000000000000000000081526004016107c79190611355565b60405180910390fd5b50600360003373ffffffffffffffffffffffffffffffffffffffff1673ffffffffffffffffffffffffffffffffffffffff168152602001908152602001600020600083815260200190815260200160002060009054906101000a900460ff161561083983610ab1565b6040516020016108499190611444565b60405160208183030381529060405290610899576040517f08c379a00000000000000000000000000000000000000000000000000000000081526004016108909190611355565b60405180910390fd5b506001600360003373ffffffffffffffffffffffffffffffffffffffff1673ffffffffffffffffffffffffffffffffffffffff168152602001908152602001600020600084815260200190815260200160002060006101000a81548160ff0219169083151502179055506001546002838154811061091a576109196110c7565b5b90600052602060002090600502016003016000815461093890611125565b91905081905510610a3f57600160028381548110610959576109586110c7565b5b906000526020600020906005020160040160006101000a81548160ff021916908315150217905550600060028381548110610997576109966110c7565b5b906000526020600020906005020160020160009054906101000a900473ffffffffffffffffffffffffffffffffffffffff1690506000600284815481106109e1576109e06110c7565b5b90600052602060002090600502016001015490508173ffffffffffffffffffffffffffffffffffffffff166108fc829081150290604051600060405180830381858888f19350505050158015610a3b573d6000803e3d6000fd5b5050505b5050565b60008181548110610a5357600080fd5b906000526020600020016000915054906101000a900473ffffffffffffffffffffffffffffffffffffffff1681565b60036020528160005260406000206020528060005260406000206000915091509054906101000a900460ff1681565b606060008203610af8576040518060400160405280600181526020017f30000000000000000000000000000000000000000000000000000000000000008152509050610c0c565b600082905060005b60008214610b2a578080610b1390611125565b915050600a82610b239190611495565b9150610b00565b60008167ffffffffffffffff811115610b4657610b456114c6565b5b6040519080825280601f01601f191660200182016040528015610b785781602001600182028036833780820191505090505b5090505b60008514610c0557600182610b9191906114f5565b9150600a85610ba09190611529565b6030610bac919061155a565b60f81b818381518110610bc257610bc16110c7565b5b60200101907effffffffffffffffffffffffffffffffffffffffffffffffffffffffffffff1916908160001a905350600a85610bfe9190611495565b9450610b7c565b8093505050505b919050565b6000819050919050565b610c2481610c11565b82525050565b6000602082019050610c3f6000830184610c1b565b92915050565b600081519050919050565b600082825260208201905092915050565b6000819050602082019050919050565b610c7a81610c11565b82525050565b600073ffffffffffffffffffffffffffffffffffffffff82169050919050565b6000610cab82610c80565b9050919050565b610cbb81610ca0565b82525050565b60008115159050919050565b610cd681610cc1565b82525050565b60a082016000820151610cf26000850182610c71565b506020820151610d056020850182610c71565b506040820151610d186040850182610cb2565b506060820151610d2b6060850182610c71565b506080820151610d3e6080850182610ccd565b50505050565b6000610d508383610cdc565b60a08301905092915050565b6000602082019050919050565b6000610d7482610c45565b610d7e8185610c50565b9350610d8983610c61565b8060005b83811015610dba578151610da18882610d44565b9750610dac83610d5c565b925050600181019050610d8d565b5085935050505092915050565b60006020820190508181036000830152610de18184610d69565b905092915050565b600080fd5b610df781610c11565b8114610e0257600080fd5b50565b600081359050610e1481610dee565b92915050565b610e2381610ca0565b8114610e2e57600080fd5b50565b600081359050610e4081610e1a565b92915050565b60008060408385031215610e5d57610e5c610de9565b5b6000610e6b85828601610e05565b9250506020610e7c85828601610e31565b9150509250929050565b600081519050919050565b600082825260208201905092915050565b6000819050602082019050919050565b6000610ebd82610c80565b9050919050565b610ecd81610eb2565b82525050565b6000610edf8383610ec4565b60208301905092915050565b6000602082019050919050565b6000610f0382610e86565b610f0d8185610e91565b9350610f1883610ea2565b8060005b83811015610f49578151610f308882610ed3565b9750610f3b83610eeb565b925050600181019050610f1c565b5085935050505092915050565b60006020820190508181036000830152610f708184610ef8565b905092915050565b600060208284031215610f8e57610f8d610de9565b5b6000610f9c84828501610e05565b91505092915050565b610fae81610ca0565b82525050565b610fbd81610cc1565b82525050565b600060a082019050610fd86000830188610c1b565b610fe56020830187610c1b565b610ff26040830186610fa5565b610fff6060830185610c1b565b61100c6080830184610fb4565b9695505050505050565b61101f81610eb2565b82525050565b600060208201905061103a6000830184611016565b92915050565b61104981610eb2565b811461105457600080fd5b50565b60008135905061106681611040565b92915050565b6000806040838503121561108357611082610de9565b5b600061109185828601611057565b92505060206110a285828601610e05565b9150509250929050565b60006020820190506110c16000830184610fb4565b92915050565b7f4e487b7100000000000000000000000000000000000000000000000000000000600052603260045260246000fd5b7f4e487b7100000000000000000000000000000000000000000000000000000000600052601160045260246000fd5b600061113082610c11565b91507fffffffffffffffffffffffffffffffffffffffffffffffffffffffffffffffff8203611162576111616110f6565b5b600182019050919050565b600082825260208201905092915050565b7f4f6e6c7920617574686f72697a656420617070726f766572732061726520616c60008201527f6c6f77656420746f20706572666f726d207468697320616374696f6e2e000000602082015250565b60006111da603d8361116d565b91506111e58261117e565b604082019050919050565b60006020820190508181036000830152611209816111cd565b9050919050565b7f5472616e73666572202300000000000000000000000000000000000000000000815250565b600081519050919050565b600081905092915050565b60005b8381101561126a57808201518184015260208101905061124f565b83811115611279576000848401525b50505050565b600061128a82611236565b6112948185611241565b93506112a481856020860161124c565b80840191505092915050565b7f20646f6573206e6f74206578697374732e000000000000000000000000000000815250565b60006112e182611210565b600a820191506112f1828461127f565b91506112fc826112b0565b60118201915081905092915050565b6000601f19601f8301169050919050565b600061132782611236565b611331818561116d565b935061134181856020860161124c565b61134a8161130b565b840191505092915050565b6000602082019050818103600083015261136f818461131c565b905092915050565b7f2068617320616c7265616479206265656e2073656e742e000000000000000000815250565b60006113a882611210565b600a820191506113b8828461127f565b91506113c382611377565b60178201915081905092915050565b7f596f7527766520616c726561647920617070726f76656420746865207472616e60008201527f7366657220230000000000000000000000000000000000000000000000000000602082015250565b600061142e602683611241565b9150611439826113d2565b602682019050919050565b600061144f82611421565b915061145b828461127f565b915081905092915050565b7f4e487b7100000000000000000000000000000000000000000000000000000000600052601260045260246000fd5b60006114a082610c11565b91506114ab83610c11565b9250826114bb576114ba611466565b5b828204905092915050565b7f4e487b7100000000000000000000000000000000000000000000000000000000600052604160045260246000fd5b600061150082610c11565b915061150b83610c11565b92508282101561151e5761151d6110f6565b5b828203905092915050565b600061153482610c11565b915061153f83610c11565b92508261154f5761154e611466565b5b828206905092915050565b600061156582610c11565b915061157083610c11565b9250827fffffffffffffffffffffffffffffffffffffffffffffffffffffffffffffffff038211156115a5576115a46110f6565b5b82820190509291505056fea26469706673582212209624ad70dddcb1549971e3ef64a1e321d7677dacca8ca56bb04cd9614c307b6964736f6c634300080e0033",
  "immutableReferences": {},
  "source": "// SPDX-License-Identifier: UNLICENSED\n\npragma solidity ^0.8.14;\n\nimport \"@openzeppelin/contracts/utils/Strings.sol\";\n\ncontract Wallet {\n    address[] public approvers;\n    uint public quorum;\n    struct Transfer {\n        uint id;\n        uint amount;\n        address payable to;\n        uint approvals;\n        bool sent;\n    }\n    Transfer[] public transfers;\n    mapping(address => mapping(uint => bool)) public approvals;\n\n    constructor(address[] memory _approvers, uint _quorum) {\n        approvers = _approvers;\n        quorum = _quorum;\n    }\n\n    function getApprovers() external view returns(address[] memory) {\n        return approvers;\n    }\n\n    function getTransfers() external view returns(Transfer[] memory) {\n        return transfers;\n    }\n\n    function createTransfer(uint amount, address payable to) external onlyApprover() {\n        transfers.push(\n            Transfer({\n                id: transfers.length, \n                amount: amount,\n                to: to,\n                approvals: 0,\n                sent: false\n            })\n        );\n    }\n\n    function approveTransfer(uint id) external onlyApprover() {\n        require(id < transfers.length, string.concat(\"Transfer #\", Strings.toString(id), \" does not exists.\"));\n        require(!transfers[id].sent, string.concat(\"Transfer #\", Strings.toString(id), \" has already been sent.\"));\n        require(!approvals[msg.sender][id], string.concat(\"You've already approved the transfer #\", Strings.toString(id)));\n\n        approvals[msg.sender][id] = true;\n\n        if ( ++transfers[id].approvals >= quorum ) {\n            transfers[id].sent = true;\n            address payable to = transfers[id].to;\n            uint amount = transfers[id].amount;\n            to.transfer(amount);\n        }\n    }\n\n    receive() external payable {}\n\n    modifier onlyApprover() {\n        bool allowed = false;\n        for ( uint i; i < approvers.length; i++ ) {\n            if (approvers[i] == msg.sender) {\n                allowed = true;\n            }\n        }\n        require(allowed, \"Only authorized approvers are allowed to perform this action.\");\n        _;\n    }\n}",
  "sourcePath": "/Users/nico/Documents/projects/etb_wallet/contracts/Wallet.sol",
  "compiler": {
    "name": "solc",
    "version": "0.8.14+commit.80d49f37.Emscripten.clang"
  },
  "schemaVersion": "3.4.7",
  "updatedAt": "2022-06-30T15:45:09.222Z",
  "networkType": "ethereum",
  "devdoc": {
    "kind": "dev",
    "methods": {},
    "version": 1
  },
  "userdoc": {
    "kind": "user",
    "methods": {},
    "version": 1
  }
}